{
  "address": "0xa35Edc2Fd13AFE5423621d4C842CD65394958759",
  "abi": [
    {
      "inputs": [
        {
          "internalType": "uint256",
          "name": "_lockTime",
          "type": "uint256"
        },
        {
          "internalType": "address",
          "name": "dataFeedAddr",
          "type": "address"
        }
      ],
      "stateMutability": "nonpayable",
      "type": "constructor"
    },
    {
      "inputs": [],
      "name": "dataFeed",
      "outputs": [
        {
          "internalType": "contract AggregatorV3Interface",
          "name": "",
          "type": "address"
        }
      ],
      "stateMutability": "view",
      "type": "function"
    },
    {
      "inputs": [],
      "name": "fund",
      "outputs": [],
      "stateMutability": "payable",
      "type": "function"
    },
    {
      "inputs": [],
      "name": "fundSuccess",
      "outputs": [
        {
          "internalType": "bool",
          "name": "",
          "type": "bool"
        }
      ],
      "stateMutability": "view",
      "type": "function"
    },
    {
      "inputs": [
        {
          "internalType": "address",
          "name": "",
          "type": "address"
        }
      ],
      "name": "funderToAmount",
      "outputs": [
        {
          "internalType": "uint256",
          "name": "",
          "type": "uint256"
        }
      ],
      "stateMutability": "view",
      "type": "function"
    },
    {
      "inputs": [],
      "name": "getChainlinkDataFeedLatestAnswer",
      "outputs": [
        {
          "internalType": "int256",
          "name": "",
          "type": "int256"
        }
      ],
      "stateMutability": "view",
      "type": "function"
    },
    {
      "inputs": [],
      "name": "getFund",
      "outputs": [],
      "stateMutability": "nonpayable",
      "type": "function"
    },
    {
      "inputs": [],
      "name": "owner",
      "outputs": [
        {
          "internalType": "address",
          "name": "",
          "type": "address"
        }
      ],
      "stateMutability": "view",
      "type": "function"
    },
    {
      "inputs": [],
      "name": "reFund",
      "outputs": [],
      "stateMutability": "nonpayable",
      "type": "function"
    },
    {
      "inputs": [
        {
          "internalType": "address",
          "name": "_erc20Addr",
          "type": "address"
        }
      ],
      "name": "setErc20Addr",
      "outputs": [],
      "stateMutability": "nonpayable",
      "type": "function"
    },
    {
      "inputs": [
        {
          "internalType": "address",
          "name": "funder",
          "type": "address"
        },
        {
          "internalType": "uint256",
          "name": "amountoUpdate",
          "type": "uint256"
        }
      ],
      "name": "setFunderToAmount",
      "outputs": [],
      "stateMutability": "nonpayable",
      "type": "function"
    },
    {
      "inputs": [
        {
          "internalType": "address",
          "name": "newOwner",
          "type": "address"
        }
      ],
      "name": "transferOwnership",
      "outputs": [],
      "stateMutability": "nonpayable",
      "type": "function"
    }
  ],
  "transactionHash": "0x801ffe18d9ea877876eaaa289e8ae5a9284193ecde3199d4c426beed7949a492",
  "args": [
    180,
    "0x694AA1769357215DE4FAC081bf1f309aDC325306"
  ],
  "numDeployments": 1,
  "solcInputHash": "d76eb5f9ef2857b230ed0782ced5d597",
  "bytecode": "0x60806040526000600560146101000a81548160ff02191690831515021790555034801561002b57600080fd5b506040516115d33803806115d3833981810160405281019061004d919061017d565b80600260006101000a81548173ffffffffffffffffffffffffffffffffffffffff021916908373ffffffffffffffffffffffffffffffffffffffff16021790555033600160006101000a81548173ffffffffffffffffffffffffffffffffffffffff021916908373ffffffffffffffffffffffffffffffffffffffff160217905550426003819055508160048190555050506101bd565b600080fd5b6000819050919050565b6100fc816100e9565b811461010757600080fd5b50565b600081519050610119816100f3565b92915050565b600073ffffffffffffffffffffffffffffffffffffffff82169050919050565b600061014a8261011f565b9050919050565b61015a8161013f565b811461016557600080fd5b50565b60008151905061017781610151565b92915050565b60008060408385031215610194576101936100e4565b5b60006101a28582860161010a565b92505060206101b385828601610168565b9150509250929050565b611407806101cc6000396000f3fe60806040526004361061009c5760003560e01c80639e42ff90116100645780639e42ff9014610160578063b60d42881461018b578063bea4dfb514610195578063d39cf006146101c0578063e9d5480d146101e9578063f2fde38b146102145761009c565b80630ff0a4df146100a157806313ffff01146100b85780634407e1e8146100e15780638da5cb5b1461011e5780638edd6eb614610149575b600080fd5b3480156100ad57600080fd5b506100b661023d565b005b3480156100c457600080fd5b506100df60048036038101906100da9190610bf0565b610496565b005b3480156100ed57600080fd5b5061010860048036038101906101039190610bf0565b61056a565b6040516101159190610c36565b60405180910390f35b34801561012a57600080fd5b50610133610582565b6040516101409190610c60565b60405180910390f35b34801561015557600080fd5b5061015e6105a8565b005b34801561016c57600080fd5b506101756107ee565b6040516101829190610cda565b60405180910390f35b610193610814565b005b3480156101a157600080fd5b506101aa6108fe565b6040516101b79190610d0e565b60405180910390f35b3480156101cc57600080fd5b506101e760048036038101906101e29190610d55565b61099f565b005b3480156101f557600080fd5b506101fe610a76565b60405161020b9190610db0565b60405180910390f35b34801561022057600080fd5b5061023b60048036038101906102369190610bf0565b610a89565b005b60045460035461024d9190610dfa565b42101561028f576040517f08c379a000000000000000000000000000000000000000000000000000000000815260040161028690610e8b565b60405180910390fd5b680ad78ebc5ac62000006102a247610b5d565b106102e2576040517f08c379a00000000000000000000000000000000000000000000000000000000081526004016102d990610ef7565b60405180910390fd5b60008060003373ffffffffffffffffffffffffffffffffffffffff1673ffffffffffffffffffffffffffffffffffffffff1681526020019081526020016000205403610363576040517f08c379a000000000000000000000000000000000000000000000000000000000815260040161035a90610f63565b60405180910390fd5b60003373ffffffffffffffffffffffffffffffffffffffff166000803373ffffffffffffffffffffffffffffffffffffffff1673ffffffffffffffffffffffffffffffffffffffff168152602001908152602001600020546040516103c790610fb4565b60006040518083038185875af1925050503d8060008114610404576040519150601f19603f3d011682016040523d82523d6000602084013e610409565b606091505b5050809150508061044f576040517f08c379a000000000000000000000000000000000000000000000000000000000815260040161044690611015565b60405180910390fd5b60008060003373ffffffffffffffffffffffffffffffffffffffff1673ffffffffffffffffffffffffffffffffffffffff1681526020019081526020016000208190555050565b3373ffffffffffffffffffffffffffffffffffffffff16600160009054906101000a900473ffffffffffffffffffffffffffffffffffffffff1673ffffffffffffffffffffffffffffffffffffffff1614610526576040517f08c379a000000000000000000000000000000000000000000000000000000000815260040161051d906110a7565b60405180910390fd5b80600560006101000a81548173ffffffffffffffffffffffffffffffffffffffff021916908373ffffffffffffffffffffffffffffffffffffffff16021790555050565b60006020528060005260406000206000915090505481565b600160009054906101000a900473ffffffffffffffffffffffffffffffffffffffff1681565b6004546003546105b89190610dfa565b4210156105fa576040517f08c379a00000000000000000000000000000000000000000000000000000000081526004016105f190610e8b565b60405180910390fd5b3373ffffffffffffffffffffffffffffffffffffffff16600160009054906101000a900473ffffffffffffffffffffffffffffffffffffffff1673ffffffffffffffffffffffffffffffffffffffff161461068a576040517f08c379a0000000000000000000000000000000000000000000000000000000008152600401610681906110a7565b60405180910390fd5b680ad78ebc5ac620000061069d47610b5d565b10156106de576040517f08c379a00000000000000000000000000000000000000000000000000000000081526004016106d590611113565b60405180910390fd5b60003373ffffffffffffffffffffffffffffffffffffffff164760405161070490610fb4565b60006040518083038185875af1925050503d8060008114610741576040519150601f19603f3d011682016040523d82523d6000602084013e610746565b606091505b5050809150508061078c576040517f08c379a000000000000000000000000000000000000000000000000000000000815260040161078390611015565b60405180910390fd5b60008060003373ffffffffffffffffffffffffffffffffffffffff1673ffffffffffffffffffffffffffffffffffffffff168152602001908152602001600020819055506001600560146101000a81548160ff02191690831515021790555050565b600260009054906101000a900473ffffffffffffffffffffffffffffffffffffffff1681565b68056bc75e2d6310000061082734610b5d565b1015610868576040517f08c379a000000000000000000000000000000000000000000000000000000000815260040161085f9061117f565b60405180910390fd5b6004546003546108789190610dfa565b42106108b9576040517f08c379a00000000000000000000000000000000000000000000000000000000081526004016108b090610e8b565b60405180910390fd5b346000803373ffffffffffffffffffffffffffffffffffffffff1673ffffffffffffffffffffffffffffffffffffffff16815260200190815260200160002081905550565b600080600260009054906101000a900473ffffffffffffffffffffffffffffffffffffffff1673ffffffffffffffffffffffffffffffffffffffff1663feaf968c6040518163ffffffff1660e01b815260040160a060405180830381865afa15801561096e573d6000803e3d6000fd5b505050506040513d601f19601f820116820180604052508101906109929190611222565b5050509150508091505090565b600560009054906101000a900473ffffffffffffffffffffffffffffffffffffffff1673ffffffffffffffffffffffffffffffffffffffff163373ffffffffffffffffffffffffffffffffffffffff1614610a2f576040517f08c379a0000000000000000000000000000000000000000000000000000000008152600401610a269061130f565b60405180910390fd5b806000808473ffffffffffffffffffffffffffffffffffffffff1673ffffffffffffffffffffffffffffffffffffffff168152602001908152602001600020819055505050565b600560149054906101000a900460ff1681565b3373ffffffffffffffffffffffffffffffffffffffff16600160009054906101000a900473ffffffffffffffffffffffffffffffffffffffff1673ffffffffffffffffffffffffffffffffffffffff1614610b19576040517f08c379a0000000000000000000000000000000000000000000000000000000008152600401610b10906110a7565b60405180910390fd5b80600160006101000a81548173ffffffffffffffffffffffffffffffffffffffff021916908373ffffffffffffffffffffffffffffffffffffffff16021790555050565b600080610b686108fe565b90506305f5e1008184610b7b919061132f565b610b8591906113a0565b915050919050565b600080fd5b600073ffffffffffffffffffffffffffffffffffffffff82169050919050565b6000610bbd82610b92565b9050919050565b610bcd81610bb2565b8114610bd857600080fd5b50565b600081359050610bea81610bc4565b92915050565b600060208284031215610c0657610c05610b8d565b5b6000610c1484828501610bdb565b91505092915050565b6000819050919050565b610c3081610c1d565b82525050565b6000602082019050610c4b6000830184610c27565b92915050565b610c5a81610bb2565b82525050565b6000602082019050610c756000830184610c51565b92915050565b6000819050919050565b6000610ca0610c9b610c9684610b92565b610c7b565b610b92565b9050919050565b6000610cb282610c85565b9050919050565b6000610cc482610ca7565b9050919050565b610cd481610cb9565b82525050565b6000602082019050610cef6000830184610ccb565b92915050565b6000819050919050565b610d0881610cf5565b82525050565b6000602082019050610d236000830184610cff565b92915050565b610d3281610c1d565b8114610d3d57600080fd5b50565b600081359050610d4f81610d29565b92915050565b60008060408385031215610d6c57610d6b610b8d565b5b6000610d7a85828601610bdb565b9250506020610d8b85828601610d40565b9150509250929050565b60008115159050919050565b610daa81610d95565b82525050565b6000602082019050610dc56000830184610da1565b92915050565b7f4e487b7100000000000000000000000000000000000000000000000000000000600052601160045260246000fd5b6000610e0582610c1d565b9150610e1083610c1d565b9250828201905080821115610e2857610e27610dcb565b5b92915050565b600082825260208201905092915050565b7f74696d65206f7574000000000000000000000000000000000000000000000000600082015250565b6000610e75600883610e2e565b9150610e8082610e3f565b602082019050919050565b60006020820190508181036000830152610ea481610e68565b9050919050565b7f5461726765742076616c75652061636869657665640000000000000000000000600082015250565b6000610ee1601583610e2e565b9150610eec82610eab565b602082019050919050565b60006020820190508181036000830152610f1081610ed4565b9050919050565b7f54686973206d6f6e657920646f65736e27742062656c6f6e6720746f20796f75600082015250565b6000610f4d602083610e2e565b9150610f5882610f17565b602082019050919050565b60006020820190508181036000830152610f7c81610f40565b9050919050565b600081905092915050565b50565b6000610f9e600083610f83565b9150610fa982610f8e565b600082019050919050565b6000610fbf82610f91565b9150819050919050565b7f7472616e73666572206678206661696c65640000000000000000000000000000600082015250565b6000610fff601283610e2e565b915061100a82610fc9565b602082019050919050565b6000602082019050818103600083015261102e81610ff2565b9050919050565b7f546869732066756e6374696f6e2063616e206f6e6c792062652063616c6c656460008201527f20627920746865206f776e657200000000000000000000000000000000000000602082015250565b6000611091602d83610e2e565b915061109c82611035565b604082019050919050565b600060208201905081810360008301526110c081611084565b9050919050565b7f5461726765742076616c7565206e6f7420616368696576656400000000000000600082015250565b60006110fd601983610e2e565b9150611108826110c7565b602082019050919050565b6000602082019050818103600083015261112c816110f0565b9050919050565b7f73656e64206d6f72652065746800000000000000000000000000000000000000600082015250565b6000611169600d83610e2e565b915061117482611133565b602082019050919050565b600060208201905081810360008301526111988161115c565b9050919050565b600069ffffffffffffffffffff82169050919050565b6111be8161119f565b81146111c957600080fd5b50565b6000815190506111db816111b5565b92915050565b6111ea81610cf5565b81146111f557600080fd5b50565b600081519050611207816111e1565b92915050565b60008151905061121c81610d29565b92915050565b600080600080600060a0868803121561123e5761123d610b8d565b5b600061124c888289016111cc565b955050602061125d888289016111f8565b945050604061126e8882890161120d565b935050606061127f8882890161120d565b9250506080611290888289016111cc565b9150509295509295909350565b7f796f7520646f206e6f742068617665207065726d697373696f6e20746f20636160008201527f6c6c20746869732066756e6374696f6e00000000000000000000000000000000602082015250565b60006112f9603083610e2e565b91506113048261129d565b604082019050919050565b60006020820190508181036000830152611328816112ec565b9050919050565b600061133a82610c1d565b915061134583610c1d565b925082820261135381610c1d565b9150828204841483151761136a57611369610dcb565b5b5092915050565b7f4e487b7100000000000000000000000000000000000000000000000000000000600052601260045260246000fd5b60006113ab82610c1d565b91506113b683610c1d565b9250826113c6576113c5611371565b5b82820490509291505056fea26469706673582212205d53d358c3822e21ebe04c60bc135bdbe115d80f89c4a952d0e8a7ddedad9cfd64736f6c634300081b0033",
  "devdoc": {
    "kind": "dev",
    "methods": {},
    "version": 1
  },
  "userdoc": {
    "kind": "user",
    "methods": {},
    "version": 1
  },
  "storageLayout": {
    "storage": [
      {
        "astId": 765,
        "contract": "contracts/FundMe.sol:FundMe",
        "label": "funderToAmount",
        "offset": 0,
        "slot": "0",
        "type": "t_mapping(t_address,t_uint256)"
      },
      {
        "astId": 781,
        "contract": "contracts/FundMe.sol:FundMe",
        "label": "owner",
        "offset": 0,
        "slot": "1",
        "type": "t_address"
      },
      {
        "astId": 784,
        "contract": "contracts/FundMe.sol:FundMe",
        "label": "dataFeed",
        "offset": 0,
        "slot": "2",
        "type": "t_contract(AggregatorV3Interface)45"
      },
      {
        "astId": 786,
        "contract": "contracts/FundMe.sol:FundMe",
        "label": "deploymentTimestamp",
        "offset": 0,
        "slot": "3",
        "type": "t_uint256"
      },
      {
        "astId": 788,
        "contract": "contracts/FundMe.sol:FundMe",
        "label": "lockTime",
        "offset": 0,
        "slot": "4",
        "type": "t_uint256"
      },
      {
        "astId": 790,
        "contract": "contracts/FundMe.sol:FundMe",
        "label": "erc20Addr",
        "offset": 0,
        "slot": "5",
        "type": "t_address"
      },
      {
        "astId": 793,
        "contract": "contracts/FundMe.sol:FundMe",
        "label": "fundSuccess",
        "offset": 20,
        "slot": "5",
        "type": "t_bool"
      }
    ],
    "types": {
      "t_address": {
        "encoding": "inplace",
        "label": "address",
        "numberOfBytes": "20"
      },
      "t_bool": {
        "encoding": "inplace",
        "label": "bool",
        "numberOfBytes": "1"
      },
      "t_contract(AggregatorV3Interface)45": {
        "encoding": "inplace",
        "label": "contract AggregatorV3Interface",
        "numberOfBytes": "20"
      },
      "t_mapping(t_address,t_uint256)": {
        "encoding": "mapping",
        "key": "t_address",
        "label": "mapping(address => uint256)",
        "numberOfBytes": "32",
        "value": "t_uint256"
      },
      "t_uint256": {
        "encoding": "inplace",
        "label": "uint256",
        "numberOfBytes": "32"
      }
    }
  }
}